:060000000A128A11922F82
:100F240083010A128A11D42F9E2F0130F00200305F
:100F3400031CF103F1029E2F71087004031DA32FFB
:100F4400A42F972FA52F0800F400B42FE830F20047
:100F54000330F3000A128A11BB270A128A110130E6
:100F6400F402B42FF408031DB82FB92FA82FBA2FF9
:100F74000800CC2F2C30F0000130F1000A128A1145
:100F840096270A128A110130F2020030031CF3037F
:100F9400F302CC2F73087204031DD12FD22FBC2F60
:100FA400D32F080083160313850186018701880166
:100FB4008901DC2FFF30831203138500FF30860084
:100FC400FF308700FF308800FF30890001300A12AB
:100FD4008A11A6270A128A11831203138501860136
:100FE40087018801890101300A128A11A6270A1291
:0C0FF4008A11DC2FDC2F0A128A11002861
:00000001FF
