:100000000A128A11512FFF1B0D2883137F188317A3
:100010000008840A0319FF0A080000308A00040857
:10002000840A820700340A340A340D3445346E34AD
:100030007434653472342034613420346E34653461
:100040007734203453347434723469346E34673402
:100050003A34203400340A340D3445346E34743468
:1000600065347234653464342034533474347234F7
:0C00700069346E3467343A3420340034B4
:100EA20083010A128A11A52F562F831203138C1E57
:100EB2005B2F5C2F562F8C121A085F2F0800F00050
:100EC200622F831203130C1E672F682F622F0C12DE
:100ED20070089900080080308316031387002030C1
:100EE200980090308312031398001F308316031367
:100EF20099000800932F720883120313FF007108F0
:100F020084000A128A1103200A128A110A128A1113
:100F120060270A128A110130F1070318F20A003021
:100F2200F207932F720883120313FF0071088400E3
:100F32000A128A1103200A128A110038031DA22FF5
:100F4200A32F7C2FA42F08000A128A116C270A12E1
:100F52008A11AB2F0130F1008030F2000A128A119F
:100F62007B270A128A1120300A128A11D1270A120B
:100F72008A111930F1008030F2000A128A117B279F
:100F82000A128A112030F1000030F2000A128A118E
:100F92007B270A128A11AB2FAB2F0A128A11002863
:100FA200F2000A128A1155270A128A11F1007108F9
:100FB200F30073080A128A1160270A128A11730851
:100FC2000D3A0319E52FE62FED2F73080A3A031D98
:100FD200EB2FEC2FF22FED2F720884008313800188
:100FE200FF2F7308F10072088400710883138000D8
:0E0FF2000130F1007108F207D22FD22F080053
:00000001FF
