:100000000A128A117F2FFF1B0D2883137F18831775
:100010000008840A0319FF0A080000308A00040857
:10002000840A82070034773465346C3463346F3467
:100030006D346534203474346F3420345034493492
:1000400043342034703472346F3467347234613422
:100050006D346D3469346E3467340A340D340034D1
:100EAC00F000582F831203130C1E5D2F5E2F582F4A
:100EBC000C12700899000800683465346C346C347A
:100ECC006F34203477346F3472346C3464342C3493
:100EDC0020340034803083160313870020309800B0
:100EEC0090308312031398001F308316031399005C
:100EFC00080083132E30FD000730FE006230FF0027
:100F0C00203084000A128A1195270A128A11830153
:100F1C000A128A11CE2F7E088A007F0882000A12DC
:100F2C008A1191270A128A118000840A04087D060E
:100F3C0003190034FF0A0319FE0A952FBC2F7208FF
:100F4C0083120313FF00710884000A128A11032014
:100F5C000A128A110A128A1156270A128A110130B2
:100F6C00F1070318F20A0030F207BC2F7208831243
:100F7C000313FF00710884000A128A1103200A125D
:100F8C008A110038031DCB2FCC2FA52FCD2F080095
:100F9C002E3084002030F3000408F4000E30F500ED
:100FAC007308840083130008F600F30A74088400A5
:100FBC0076088000F40AF50BD62F0A128A117027D6
:100FCC000A128A11E92F2E30F1000030F2000A12B9
:100FDC008A11A4270A128A110130F1008030F20024
:100FEC000A128A11A4270A128A11E92FE92F0A1270
:040FFC008A1100282E
:00000001FF
