:100000000A128A112C2D00308A000408840A820703
:100010000034543465346D3470342034203420344A
:10002000203420343A3420340034413444344334CE
:100030002034763461346C34753465343A34203489
:0200400000348A
:100A580083010A128A11E42EC0300A128A1168250D
:100A68000A128A110800831203139F01803083162B
:100A780003139F000800472D0130F0020030031CCB
:100A8800F103F102472D71087004031D4C2D4D2D03
:100A9800402D4E2D0800602D2C30F0000130F10063
:100AA8000A128A113F250A128A110130F202003017
:100AB800031CF303F302602D73087204031D652DF4
:100AC800662D502D672D0800F40074088312031357
:100AD80086000810881008150A30F0000030F10070
:100AE8000A128A113F250A128A1183120313081168
:100AF8000130F2000030F3000A128A114F250A1261
:100B08008A110800F400740883120313860008147D
:100B1800881008150A30F0000030F1000A128A1116
:100B28003F250A128A118312031308110130F200BB
:100B38000030F3000A128A114F250A128A110800A0
:100B4800F600B72D760884000A128A1103200A12CB
:100B58008A110A128A1186250A128A110130F500B3
:100B68007508F607B72D760884000A128A11032043
:100B78000A128A110038031DC22DC32DA62DC42DBB
:100B880008008830F0001330F1000A128A113F255E
:100B98000A128A11831603138601880138300A1253
:100BA8008A1168250A128A110E300A128A116825DC
:100BB8000A128A1101300A128A1168250A128A114A
:100BC80080300A128A1168250A128A110800F80072
:100BD800023078020318F12DF22D132E7808F60052
:100BE80005300310F60DFF3E031DF52D0310760D9D
:100BF8008038F7007708F900103075020318052EC1
:100C0800062E0C2E75087907F6007608F9000C2ECA
:100C180079080A128A1168250A128A11132E080007
:100C2800F6007608F40003300310F40DFF3E031DB0
:100C3800182E0130F5000030831203131F180130FD
:100C4800013E282E0310F50DFF3E031D262E7508C4
:100C580074049F003230F0000030F1000A128A114B
:100C68003F250A128A11831203131F153B2E1F19E1
:100C78003E2E3F2E3B2E402E1E08F400F501740830
:100C8800F500F401831603131E087407F200003000
:100C9800031801307507F300512E0800710870041D
:100CA8000319572E582E8E2EF5010314F50D682EB4
:100CB80001300310F00DF10DFF3E031D5D2E0130D4
:100CC800F4007408F507682EF11F6B2E6C2E5C2E4D
:100CD8006E2E6E2E71087302031D742E7008720238
:100CE800031C772E782E7F2E7008F2027108031CE1
:100CF800F303F3027F2E01300310F10CF00CFF3EDA
:100D0800031D802E0130F502031D8B2E8C2E6E2EB6
:100D18008E2E8E2E7308F101F1077208F001F0078C
:100D2800952E0800F501F6017108700403199D2E2F
:100D38009E2EDC2EF7010314F70DAE2E01300310A2
:100D4800F00DF10DFF3E031DA32E0130F4007408D1
:100D5800F707AE2EF11FB12EB22EA22EB42EB42E4E
:100D680001300310F50DF60DFF3E031DB52E710879
:100D78007302031DC12E70087202031CC42EC52EF7
:100D8800CD2E7008F2027108031CF303F3027514E8
:100D9800CD2E01300310F10CF00CFF3E031DCE2EBA
:100DA8000130F702031DD92EDA2EB42EDC2EDC2EEC
:100DB8007608F101F1077508F001F007E32E080045
:100DC8000A128A11C5250A128A110A128A113725B0
:100DD8000A128A110D300A128A11A4250A128A11E0
:100DE8000A128A1130250A128A1101300A128A1150
:100DF800A4250A128A11002F01300A128A1114261A
:100E08000A128A11730883120313A301A307720835
:100E1800A201A2070A30FA007A08F50000300A1287
:100E28008A11EB250A128A11831203132308F90188
:100E3800F9072208F801F8070A128A1152270A123C
:100E48008A11831203132308FB002208FA000130D9
:100E58000310FB0CFA0CFF3E031D2C2F7A08A00090
:100E68007B08A1000A30FA007A08F50001300A125E
:100E78008A11EB250A128A11831203132108F9013A
:100E8800F9072008F801F8070A128A1152270A12EE
:100E98008A11002F002F0A128A1100281030F00042
:100EA8002730F1007908F301F3077808F201F20717
:100EB8000A128A1196260A128A117008303E0A12FE
:100EC8008A1186250A128A111030F0002730F100A5
:100ED8007908F301F3077808F201F2070A128A1178
:100EE80052260A128A117108F901F9077008F801E7
:100EF800F807E830F0000330F1007908F301F30750
:100F08007808F201F2070A128A1196260A128A1143
:100F18007008303E0A128A1186250A128A11E830B2
:100F2800F0000330F1007908F301F3077808F201C3
:100F3800F2070A128A1152260A128A117108F90157
:100F4800F9077008F801F8076430F0000030F10084
:100F58007908F301F3077808F201F2070A128A11F7
:100F680096260A128A117008303E0A128A118625BE
:100F78000A128A116430F0000030F1007908F30198
:100F8800F3077808F201F2070A128A1152260A12A8
:100F98008A117108F901F9077008F801F8070A3091
:100FA800F0000030F1007908F301F3077808F20146
:100FB800F2070A128A1196260A128A117008303E20
:100FC8000A128A1186250A128A110A30F0000030A6
:100FD800F1007908F301F3077808F201F2070A1221
:100FE8008A1152260A128A117008303E0A128A1192
:080FF80086250A128A11080087
:00000001FF
