:100000000A128A11912D00308A000408840A82079E
:10001000003441344434433420344334683461344C
:100020006E346E3465346C3420347A346534723412
:040030006F340034F5
:100B220083010A128A11502EC0300A128A11CD2571
:100B32000A128A110800831203139F018030831660
:100B420003139F000800AC2D0130F0020030031C9B
:100B5200F103F102AC2D71087004031DB12DB22D09
:100B6200A52DB32D0800C52D2C30F0000130F10069
:100B72000A128A11A4250A128A110130F2020030E7
:100B8200031CF303F302C52D73087204031DCA2D5F
:100B9200CB2DB52DCC2D0800F4007408831203135D
:100BA20086000810881008150A30F0000030F100A5
:100BB2000A128A11A4250A128A1183120313081138
:100BC2000130F2000030F3000A128A11B4250A1231
:100BD2008A110800F40074088312031386000814B3
:100BE200881008150A30F0000030F1000A128A114C
:100BF200A4250A128A118312031308110130F2008C
:100C02000030F3000A128A11B4250A128A11080070
:100C1200F6001C2E760884000A128A1103200A129A
:100C22008A110A128A11EB250A128A110130F50083
:100C32007508F6071C2E760884000A128A11032012
:100C42000A128A110038031D272E282E0B2E292E58
:100C520008008830F0001330F1000A128A11A4252E
:100C62000A128A11831603138601880138300A1288
:100C72008A11CD250A128A110E300A128A11CD2547
:100C82000A128A1101300A128A11CD250A128A111A
:100C920080300A128A11CD250A128A1108000A121E
:100CA2008A112A260A128A110A128A119C250A120C
:100CB2008A1101300A128A1109260A128A11612E3A
:100CC20000300A128A1182260A128A117308FB0165
:100CD200FB077208FA01FA070A128A1195250A120D
:100CE2008A117B08F901F9077A08F801F8070A1254
:100CF2008A1152270A128A11612E612E0A128A1152
:100D02000028F6007608F40003300310F40DFF3ECD
:100D1200031D862E0130F5000030831203131F18C5
:100D22000130013E962E0310F50DFF3E031D942E59
:100D3200750874049F003230F0000030F1000A128E
:100D42008A11A4250A128A11831203131F15A92ED0
:100D52001F19AC2EAD2EA92EAE2E1E08F400F501E1
:100D62007408F500F401831603131E087407F200D9
:100D72000030031801307507F300BF2E0800710818
:100D820070040319C52EC62EFC2EF5010314F50DB1
:100D9200D62E01300310F00DF10DFF3E031DCB2EB8
:100DA2000130F4007408F507D62EF11FD92EDA2E81
:100DB200CA2EDC2EDC2E71087302031DE22E70088F
:100DC2007202031CE52EE62EED2E7008F202710867
:100DD200031CF303F302ED2E01300310F10CF00CAF
:100DE200FF3E031DEE2E0130F502031DF92EFA2EF1
:100DF200DC2EFC2EFC2E7308F101F1077208F001C3
:100E0200F007032F0800F501F601710870040319B9
:100E12000B2F0C2F4A2FF7010314F70D1C2F013053
:100E22000310F00DF10DFF3E031D112F0130F400F0
:100E32007408F7071C2FF11F1F2F202F102F222FAE
:100E4200222F01300310F50DF60DFF3E031D232F57
:100E520071087302031D2F2F70087202031C322FB8
:100E6200332F3B2F7008F2027108031CF303F302C5
:100E720075143B2F01300310F10CF00CFF3E031DE3
:100E82003C2F0130F702031D472F482F222F4A2FF4
:100E92004A2F7608F101F1077508F001F007512F8A
:100EA20008001030F0002730F1007908F301F30751
:100EB2007808F201F2070A128A1104270A128A112B
:100EC2007008303E0A128A11EB250A128A1110307C
:100ED200F0002730F1007908F301F3077808F201F6
:100EE200F2070A128A11C0260A128A117108F90140
:100EF200F9077008F801F807E830F0000330F10054
:100F02007908F301F3077808F201F2070A128A114D
:100F120004270A128A117008303E0A128A11EB2540
:100F22000A128A11E830F0000330F1007908F30167
:100F3200F3077808F201F2070A128A11C0260A1290
:100F42008A117108F901F9077008F801F80764308D
:100F5200F0000030F1007908F301F3077808F2019C
:100F6200F2070A128A1104270A128A117008303E07
:100F72000A128A11EB250A128A116430F00000303D
:100F8200F1007908F301F3077808F201F2070A1277
:100F92008A11C0260A128A117108F901F90770082C
:100FA200F801F8070A30F0000030F1007908F30187
:100FB200F3077808F201F2070A128A1104270A12CB
:100FC2008A117008303E0A128A11EB250A128A1120
:100FD2000A30F0000030F1007908F301F3077808D5
:100FE200F201F2070A128A11C0260A128A11700847
:0E0FF200303E0A128A11EB250A128A110800FD
:00000001FF
