:100000000A128A11542C00308A000408840A8207DC
:1000100000340A340D3464346134743465343A3451
:10002000203400342034543469346D3465343A3427
:040030002034003444
:1008A80083010A128A11982F8316031387110712DE
:1008B80008000A128A11EE250A128A11F600760833
:1008C800F7007708672C0800F0006A2C83120313DE
:1008D8000C1E6F2C702C6A2C0C12700899000800E2
:1008E8008312031307120A128A11B8240A128A11F2
:1008F80083120313071608008312031307160A123C
:100908008A11B8240A128A11831203138715080062
:10091800F60076080A128A11B9250A128A110A12F3
:100928008A11B8240A128A1108008030831603132A
:1009380087002030980090308312031398001F30EE
:100948008316031399000800B02C0130F002003020
:10095800031CF103F102B02C71087004031DB52CBF
:10096800B62CA92CB72C08000130F0000030F1009B
:100978000A128A11A8240A128A11831203138715EE
:100988000130F0000030F1000A128A11A8240A127E
:100998008A118312031387110800F200E42C7208ED
:1009A80084000A128A1103200A128A110A128A1173
:1009B80068240A128A110130F1007108F207E42C48
:1009C800720884000A128A1103200A128A11003858
:1009D800031DEF2CF02CD32CF12C08000A128A11DD
:1009E80058240A128A110A128A113C250A128A11FD
:1009F800D0300A128A118C240A128A1107300A127E
:100A08008A118C240A128A1100300A128A118C2445
:100A18000A128A110A128A1114250A128A11080068
:100A28008312031387110130F0000030F1000A121D
:100A38008A11A8240A128A1183120313071201309B
:100A4800F0000030F1000A128A11A8240A128A1153
:100A58008312031387150130F0000030F1000A12E9
:100A68008A11A8240A128A11831203130716080090
:100A780083120313871107160130F0000030F100CC
:100A88000A128A11A8240A128A11831203138715DD
:100A98000130F0000030F1000A128A11A8240A126D
:100AA8008A118312031307120130F0000030F1009D
:100AB8000A128A11A8240A128A11831203138711B1
:100AC8000800F9000A128A113C250A128A11D0304E
:100AD8000A128A118C240A128A1100300A128A1109
:100AE8008C240A128A1178080A128A118C240A1294
:100AF8008A1177080A128A118C240A128A11790835
:100B08000A128A118C240A128A110A128A111425CF
:100B18000A128A110800F9000A128A113C250A12E1
:100B28008A11D0300A128A118C240A128A110430D0
:100B38000A128A118C240A128A1179080A128A1157
:100B48008C240A128A1177080A128A118C240A1234
:100B58008A1178080A128A118C240A128A110A1238
:100B68008A1114250A128A110800F400F5010830C8
:100B78007502031CC02DC12DC32DEA2DEA2D740862
:100B8800F20007300310F20CFF3E031DC62D721849
:100B9800CE2DD22D831203130716D52D83120313DE
:100BA80007120A128A11B8240A128A117408F2006C
:100BB8007207F3007308F4000130F2007208F507B9
:100BC80008307502031CE92DEA2DC32D8312031387
:100BD80007160800F501831603130716F4010830F9
:100BE8007402031CF82DF92DFB2D2A2E2A2E013014
:100BF800F0000030F1000A128A11A8240A128A11A2
:100C08008312031387150130F0000030F1000A1237
:100C18008A11A8240A128A117508F2007207F300D3
:100C28007308F500003083120313071A01307504A6
:100C3800F2007208F50087110130F2007208F4071B
:100C480008307402031C292E2A2EFB2D8316031349
:100C5800071275082F2E0800FB000A128A113C257E
:100C68000A128A11D0300A128A118C240A128A11A7
:100C780000300A128A118C240A128A110A128A1167
:100C880014250A128A110A128A113C250A128A119D
:100C9800D1300A128A118C240A128A110A128A1176
:100CA8005D240A128A11FA00790884007A088313ED
:100CB80080000A128A1174240A128A110A128A11EF
:100CC8005D240A128A11FA00780884007A088313CE
:100CD80080000A128A1174240A128A110A128A11CF
:100CE8005D240A128A11FA007B0884007A088313AB
:100CF80080000A128A1180240A128A110A128A11A3
:100D080014250A128A110800FB000A128A113C25D0
:100D18000A128A11D0300A128A118C240A128A11F6
:100D280004300A128A118C240A128A110A128A11B2
:100D380014250A128A110A128A113C250A128A11EC
:100D4800D1300A128A118C240A128A110A128A11C5
:100D58005D240A128A11FA007B0884007A0883133A
:100D680080000A128A1174240A128A110A128A113E
:100D78005D240A128A11FA00780884007A0883131D
:100D880080000A128A1174240A128A110A128A111E
:100D98005D240A128A11FA00790884007A088313FC
:100DA80080000A128A1180240A128A110A128A11F2
:100DB80014250A128A110800F60001300A128A1155
:100DC800D1240A128A117608F50004300310F50CB4
:100DD800FF3E031DEA2E75080F39303E0A128A11AC
:100DE80068240A128A1176080F39303E0A128A11CD
:100DF80068240A128A112F300A128A1168240A12EA
:100E08008A117308F50004300310F50CFF3E031D2A
:100E1800082F75080F39303E0A128A1168240A1201
:100E28008A1173080F39303E0A128A1168240A128F
:100E38008A112F300A128A1168240A128A1174083A
:100E4800F50004300310F50CFF3E031D262F75082E
:100E58000F39303E0A128A1168240A128A1174085E
:100E68000F39303E0A128A1168240A128A110800C2
:100E7800F6000A300A128A11D1240A128A11760859
:100E8800F50004300310F50CFF3E031D462F7508CE
:100E98000F39303E0A128A1168240A128A1176081C
:100EA8000F39303E0A128A1168240A128A113A3020
:100EB8000A128A1168240A128A117308F50004308C
:100EC8000310F50CFF3E031D642F75080F39303EE3
:100ED8000A128A1168240A128A1173080F39303EDF
:100EE8000A128A1168240A128A113A300A128A11DF
:100EF80068240A128A117408F50004300310F50CEE
:100F0800FF3E031D822F75080F39303E0A128A11E1
:100F180068240A128A1174080F39303E0A128A119D
:100F280068240A128A1108000A128A1199240A12DE
:100F38008A110A128A11F2240A128A114030FC001E
:100F48007C08F7002030FD007D08F80010300A12F8
:100F58008A1165250A128A111130FC007C08F700F5
:100F68001230FD007D08F80014300A128A118F250E
:100F78000A128A11BF2F2430FC007C08F8002530A3
:100F8800FD007D08F90023300A128A1188260A120A
:100F98008A11831203132408FC007C08F300250837
:100FA800FD007D08F40023080A128A11E0260A12BF
:100FB8008A112130FC007C08F8002030FD007D08F3
:100FC800F90022300A128A1130260A128A11831275
:100FD80003132108FC007C08F3002008FD007D08AD
:100FE800F40022080A128A113C270A128A11BF2F1C
:080FF800BF2F0A128A11002824
:00000001FF
