:100000000A128A11BE2E00308A000408840A820770
:1000100000344C34653474342734733420346234FF
:10002000753469346C3464342E3420342E342034E6
:100030002E340034583470346C346F347234653478
:0C00400020344C34613462347A340034D3
:100D7C0083010A128A113E2FC0300A128A1176277B
:100D8C000A128A110800D12E0130F0020030031C27
:100D9C00F103F102D12E71087004031DD62ED72E4B
:100DAC00CA2ED82E0800EA2E2C30F0000130F100AB
:100DBC000A128A11C9260A128A110130F202003075
:100DCC00031CF303F302EA2E73087204031DEF2EC7
:100DDC00F02EDA2EF12E0800F700052F770884008C
:100DEC000A128A1103200A128A110A128A11BB27CD
:100DFC000A128A110130F6007608F707052F7708DA
:100E0C0084000A128A1103200A128A110038031D69
:100E1C00102F112FF42E122F08008830F0001330F1
:100E2C00F1000A128A11C9260A128A1183160313B9
:100E3C00860102300A128A1176270A128A1128308A
:100E4C000A128A1176270A128A110E300A128A1196
:100E5C0076270A128A1101300A128A1176270A1291
:100E6C008A1180300A128A1176270A128A11080018
:100E7C000A128A1113270A128A1112300A128A11C5
:100E8C00F2260A128A110A128A11C2260A128A1131
:100E9C0001300A128A11F2260A128A1183160313E0
:100EAC008701582F8312031387016430F20000303E
:100EBC00F3000A128A11D9260A128A11FF30831202
:100ECC00031387006430F2000030F3000A128A1119
:100EDC00D9260A128A11582F582F0A128A11002863
:100EEC00F5007508F039831203138600861006117D
:100EFC0086150A30F0000030F1000A128A11C9265A
:100F0C000A128A118312031386110A30F000003082
:100F1C00F1000A128A11C9260A128A117508F40006
:100F2C0003300310F40DFF3E031D972F0310740DB7
:100F3C00F0398312031386008610061186150A30C9
:100F4C00F0000030F1000A128A11C9260A128A1127
:100F5C008312031386110130F2000030F3000A12E1
:100F6C008A11D9260A128A110800F5007508F03981
:100F7C008312031386008614061186150A30F000BE
:100F8C000030F1000A128A11C9260A128A11831242
:100F9C00031386110A30F0000030F1000A128A1196
:100FAC00C9260A128A117508F40003300310F40DD7
:100FBC00FF3E031DDC2F0310740DF0398312031355
:100FCC0086008614061186150A30F0000030F100F8
:100FDC000A128A11C9260A128A1183120313861166
:100FEC000130F2000030F3000A128A11D9260A12DD
:040FFC008A1108004E
:00000001FF
