:060000000A128A119C2F78
:100F380083010A128A11DC2F0130F0020030031CF1
:100F4800F103F10271087004031DAB2FAC2FA02F21
:100F5800AD2F0800F400BC2FE830F2000330F30096
:100F68000A128A11C3270A128A110130F402BC2F0F
:100F7800F408031DC02FC12FB02FC22F0800D42F93
:100F88007030F0000030F1000A128A11A0270A120E
:100F98008A110130F2020030031CF303F302D42F4C
:100FA80073087204031DD92FDA2FC42FDB2F080012
:100FB800F6018316031385018601870188018901DB
:100FC800E52F7608831203138500760886007608D5
:100FD8008700760888007608890001300A128A118D
:100FE800AE270A128A110130F5007508F607E52FB9
:080FF800E52F0A128A110028FE
:00000001FF
