:060000000A128A11342DE2
:100A680083010A128A11C42E831203139F01803056
:100A7800831603139F000800482D0130F002003050
:100A8800031CF103F102482D71087004031D4D2D5C
:100A98004E2D412D4F2D0800612D2C30F0000130D6
:100AA800F1000A128A1140250A128A110130F20255
:100AB8000030031CF303F302612D73087204031D55
:100AC800662D672D512D682D0800F40074088312D7
:100AD800031386000810881008150A30F00000304B
:100AE800F1000A128A1140250A128A11831203138F
:100AF80008110130F2000030F3000A128A11502563
:100B08000A128A110800F40074088312031386007D
:100B18000814881008150A30F0000030F1000A1295
:100B28008A1140250A128A11831203130811013011
:100B3800F2000030F3000A128A1150250A128A11B5
:100B480008008830F0001330F1000A128A1140259D
:100B58000A128A11831603138601880138300A1293
:100B68008A1169250A128A110E300A128A1169251A
:100B78000A128A1101300A128A1169250A128A1189
:100B880080300A128A1169250A128A110800F800B1
:100B9800023078020318D12DD22DF32D7808F600F3
:100BA80005300310F60DFF3E031DD52D0310760DFD
:100BB8008038F7007708F900103075020318E52D22
:100BC800E62DEC2D75087907F6007608F900EC2D6E
:100BD80079080A128A1169250A128A11F32D080068
:100BE800F6007608F40003300310F40DFF3E031DF1
:100BF800F82D0130F5000030831203131F1801305F
:100C0800013E082E0310F50DFF3E031D062E750844
:100C180074049F003230F0000030F1000A128A118B
:100C280040250A128A11831203131F151B2E1F1940
:100C38001E2E1F2E1B2E202E1E08F400F5017408F0
:100C4800F500F401831603131E087407F200003040
:100C5800031801307507F300312E0800710870047D
:100C68000319372E382E6E2EF5010314F50D482E74
:100C780001300310F00DF10DFF3E031D3D2E013034
:100C8800F4007408F507482EF11F4B2E4C2E3C2E0D
:100C98004E2E4E2E71087302031D542E70087202D8
:100CA800031C572E582E5F2E7008F2027108031C81
:100CB800F303F3025F2E01300310F10CF00CFF3E3A
:100CC800031D602E0130F502031D6B2E6C2E4E2E77
:100CD8006E2E6E2E7308F101F1077208F001F0070D
:100CE800752E0800F501F6017108700403197D2EB0
:100CF8007E2EBC2EF7010314F70D8E2E0130031043
:100D0800F00DF10DFF3E031D832E0130F400740831
:100D1800F7078E2EF11F912E922E822E942E942E4E
:100D280001300310F50DF60DFF3E031D952E7108D9
:100D38007302031DA12E70087202031CA42EA52E97
:100D4800AD2E7008F2027108031CF303F302751448
:100D5800AD2E01300310F10CF00CFF3E031DAE2E3A
:100D68000130F702031DB92EBA2E942EBC2EBC2ECC
:100D78007608F101F1077508F001F007C32E0800A5
:100D88000A128A11A5250A128A110A128A1138250F
:100D98000A128A11CF2E00300A128A11F4250A127B
:100DA8008A117308FC01FC077208FB01FB07F501B7
:100DB80000300A128A11CB250A128A117C08F9011F
:100DC800F9077B08F801F8070A128A1152270A1254
:100DD8008A1101300A128A11F4250A128A1173083D
:100DE800FC01FC077208FB01FB070730FA007A08D0
:100DF800F50000300A128A11CB250A128A117C08E4
:100E0800F901F9077B08F801F8070A128A11522735
:100E18000A128A1102300A128A11F4250A128A115A
:100E28007308FC01FC077208FB01FB07F5010130A0
:100E38000A128A11CB250A128A117C08F901F907CE
:100E48007B08F801F8070A128A1152270A128A1138
:100E580003300A128A11F4250A128A117308FC0158
:100E6800FC077208FB01FB070730FA007A08F50057
:100E780001300A128A11CB250A128A117C08F9015D
:100E8800F9077B08F801F8070A128A1152270A1293
:100E98008A11CF2ECF2E0A128A1100281030F000A6
:100EA8002730F1007908F301F3077808F201F20717
:100EB8000A128A1176260A128A117008303E0A121E
:100EC8008A1187250A128A111030F0002730F100A4
:100ED8007908F301F3077808F201F2070A128A1178
:100EE80032260A128A117108F901F9077008F80107
:100EF800F807E830F0000330F1007908F301F30750
:100F08007808F201F2070A128A1176260A128A1163
:100F18007008303E0A128A1187250A128A11E830B1
:100F2800F0000330F1007908F301F3077808F201C3
:100F3800F2070A128A1132260A128A117108F90177
:100F4800F9077008F801F8076430F0000030F10084
:100F58007908F301F3077808F201F2070A128A11F7
:100F680076260A128A117008303E0A128A118725DD
:100F78000A128A116430F0000030F1007908F30198
:100F8800F3077808F201F2070A128A1132260A12C8
:100F98008A117108F901F9077008F801F8070A3091
:100FA800F0000030F1007908F301F3077808F20146
:100FB800F2070A128A1176260A128A117008303E40
:100FC8000A128A1187250A128A110A30F0000030A5
:100FD800F1007908F301F3077808F201F2070A1221
:100FE8008A1132260A128A117008303E0A128A11B2
:080FF80087250A128A11080086
:00000001FF
