:100000000A128A11092E00308A000408840A820725
:1000100000343534643469346734693474342034DA
:1000200064346534633469346D3461346C34203441
:1000300063346F3475346E347434653472343A34E6
:0A004000203400340A340D3400347B
:100C120083010A128A11872EF0000F2E831203130A
:100C22000C1E142E152E0F2E0C127008990008009F
:100C3200803083160313870020309800903083128F
:100C4200031398001F308316031399000800302EF7
:100C52000130F0020030031CF103F102302E710862
:100C62007004031D352E362E292E372E0800F4006F
:100C7200462EE830F2000330F3000A128A114D26A4
:100C82000A128A110130F402462EF408031D4A2E7C
:100C92004B2E3A2E4C2E08005E2E2C30F0000130E6
:100CA200F1000A128A1128260A128A110130F20270
:100CB2000030031CF303F3025E2E73087204031D5B
:100CC200632E642E4E2E652E0800F200792E7208D5
:100CD20084000A128A1103200A128A110A128A1146
:100CE2000D260A128A110130F1007108F207792EDD
:100CF200720884000A128A1103200A128A1100382B
:100D0200031D842E852E682E862E0800FA01FB0113
:100D12000A128A1119260A128A1101300A128A113C
:100D220066260A128A11B32E7B08F901F9077A089E
:100D3200F801F8070A128A1152270A128A111A3088
:100D42000A128A1166260A128A1101300A128A11BF
:100D520038260A128A110130FA070318FB0A0030FA
:100D6200FB07B32E27307B020F3003197A02031CD4
:100D7200BB2EBC2E952EBD2E0A128A110028710898
:100D820070040319C52EC62EFC2EF5010314F50DB1
:100D9200D62E01300310F00DF10DFF3E031DCB2EB8
:100DA2000130F4007408F507D62EF11FD92EDA2E81
:100DB200CA2EDC2EDC2E71087302031DE22E70088F
:100DC2007202031CE52EE62EED2E7008F202710867
:100DD200031CF303F302ED2E01300310F10CF00CAF
:100DE200FF3E031DEE2E0130F502031DF92EFA2EF1
:100DF200DC2EFC2EFC2E7308F101F1077208F001C3
:100E0200F007032F0800F501F601710870040319B9
:100E12000B2F0C2F4A2FF7010314F70D1C2F013053
:100E22000310F00DF10DFF3E031D112F0130F400F0
:100E32007408F7071C2FF11F1F2F202F102F222FAE
:100E4200222F01300310F50DF60DFF3E031D232F57
:100E520071087302031D2F2F70087202031C322FB8
:100E6200332F3B2F7008F2027108031CF303F302C5
:100E720075143B2F01300310F10CF00CFF3E031DE3
:100E82003C2F0130F702031D472F482F222F4A2FF4
:100E92004A2F7608F101F1077508F001F007512F8A
:100EA20008001030F0002730F1007908F301F30751
:100EB2007808F201F2070A128A1104270A128A112B
:100EC2007008303E0A128A110D260A128A11103059
:100ED200F0002730F1007908F301F3077808F201F6
:100EE200F2070A128A11C0260A128A117108F90140
:100EF200F9077008F801F807E830F0000330F10054
:100F02007908F301F3077808F201F2070A128A114D
:100F120004270A128A117008303E0A128A110D261D
:100F22000A128A11E830F0000330F1007908F30167
:100F3200F3077808F201F2070A128A11C0260A1290
:100F42008A117108F901F9077008F801F80764308D
:100F5200F0000030F1007908F301F3077808F2019C
:100F6200F2070A128A1104270A128A117008303E07
:100F72000A128A110D260A128A116430F00000301A
:100F8200F1007908F301F3077808F201F2070A1277
:100F92008A11C0260A128A117108F901F90770082C
:100FA200F801F8070A30F0000030F1007908F30187
:100FB200F3077808F201F2070A128A1104270A12CB
:100FC2008A117008303E0A128A110D260A128A11FD
:100FD2000A30F0000030F1007908F301F3077808D5
:100FE200F201F2070A128A11C0260A128A11700847
:0E0FF200303E0A128A110D260A128A110800DA
:00000001FF
