:060000000A128A11BD2F57
:100F7A0083010A128A11E72FC22F831203138C1ED0
:100F8A00C72FC82FC22F8C121A08CB2F0800F000C7
:100F9A00CE2F831203130C1ED32FD42FCE2F0C1255
:100FAA0070089900080080308316031387002030E8
:100FBA00980090308312031398001F30831603138E
:100FCA00990008000A128A11D8270A128A11ED2FED
:100FDA000A128A11C1270A128A11F1007108F20055
:100FEA0072080A128A11CC270A128A11ED2FED2FE4
:060FFA000A128A11002812
:00000001FF
