:100000000A128A11DB2E00308A000408840A820753
:1000100000344C34653474342734733420346234FF
:10002000753469346C3464342E3420342E342034E6
:100030002E340034583470346C346F347234653478
:0C00400020344C34613462347A340034D3
:100DB60083010A128A110F2FC0300A128A11762770
:100DC6000A128A110800EE2E0130F0020030031CD0
:100DD600F103F102EE2E71087004031DF32EF42EBA
:100DE600E72EF52E0800072F2C30F0000130F10019
:100DF6000A128A11E6260A128A110130F20200301E
:100E0600031CF303F302072F73087204031D0C2F50
:100E16000D2FF72E0E2F08000A128A114B270A12E1
:100E26008A1112300A128A112A270A128A110A1204
:100E36008A11DF260A128A1101300A128A112A271C
:100E46000A128A11262F262F0A128A110028F70065
:100E56003D2F770884000A128A1103200A128A118C
:100E66000A128A11BB270A128A110130F600760887
:100E7600F7073D2F770884000A128A1103200A1209
:100E86008A110038031D482F492F2C2F4A2F08009E
:100E96008830F0001330F1000A128A11E6260A1291
:100EA6008A1183160313860102300A128A117627E5
:100EB6000A128A1128300A128A1176270A128A1112
:100EC6000E300A128A1176270A128A1101300A1286
:100ED6008A1176270A128A1180300A128A11762719
:100EE6000A128A110800F5007508F03983120313F7
:100EF60086008610061186150A30F0000030F100D3
:100F06000A128A11E6260A128A118312031386111F
:100F16000A30F0000030F1000A128A11E6260A12A1
:100F26008A117508F40003300310F40DFF3E031D0B
:100F3600972F0310740DF039831203138600861061
:100F4600061186150A30F0000030F1000A128A11E7
:100F5600E6260A128A118312031386110130F20063
:100F66000030F3000A128A11F6260A128A110800C6
:100F7600F5007508F03983120313860086140611EE
:100F860086150A30F0000030F1000A128A11E626B2
:100F96000A128A118312031386110A30F0000030F8
:100FA600F1000A128A11E6260A128A117508F4005F
:100FB60003300310F40DFF3E031DDC2F0310740DE8
:100FC600F0398312031386008614061186150A303B
:100FD600F0000030F1000A128A11E6260A128A1180
:100FE6008312031386110130F2000030F3000A1257
:0A0FF6008A11F6260A128A1108007B
:00000001FF
