:100000000A128A11592B00308A000408840A8207D8
:100010000034543469346D3465343A342034003457
:0E00200044346134743465343A34203400348E
:1006B20083010A128A11742F8316031387110712FA
:1006C2000800C0300A128A118E250A128A11080007
:1006D2000A128A114C250A128A11F6007608F700CE
:1006E2007708732B08008312031307120A128A1168
:1006F200C2230A128A1183120313071608008312F7
:10070200031307160A128A11C2230A128A118312CC
:10071200031387150800F60076080A128A111725B6
:100722000A128A110A128A11C2230A128A110800B5
:10073200A12B0130F0020030031CF103F102A12BC6
:1007420071087004031DA62BA72B9A2BA82B080057
:10075200BA2B2C30F0000130F1000A128A119923D1
:100762000A128A110130F2020030031CF303F30271
:10077200BA2B73087204031DBF2BC02BAA2BC12BEB
:1007820008000130F0000030F1000A128A119923AA
:100792000A128A118312031387150130F000003008
:1007A200F1000A128A1199230A128A118312031381
:1007B20087110800F700EE2B770884000A128A11CD
:1007C20003200A128A110A128A11D3250A128A11E7
:1007D2000130F6007608F707EE2B770884000A123C
:1007E2008A1103200A128A110038031DF92BFA2BF1
:1007F200DD2BFB2B08000A128A115D230A128A11D3
:100802000A128A1146240A128A11D0300A128A1157
:100812008C230A128A1107300A128A118C230A12B7
:100822008A1100300A128A118C230A128A110A12C2
:100832008A111E240A128A110800831203138711D7
:100842000130F0000030F1000A128A1199230A12D5
:100852008A118312031307120130F0000030F100F5
:100862000A128A1199230A128A1183120313871515
:100872000130F0000030F1000A128A1199230A12A5
:100882008A118312031307160800831203138711B8
:1008920007160130F0000030F1000A128A11992384
:1008A2000A128A118312031387150130F0000030F7
:1008B200F1000A128A1199230A128A118312031370
:1008C20007120130F0000030F1000A128A11992358
:1008D2000A128A118312031387110800F9000230E9
:1008E20079020318752C762C972C7908F7000530BD
:1008F2000310F70DFF3E031D792C0310770D80388E
:10090200F8007808FA00103076020318892C8A2C35
:10091200902C76087A07F7007708FA00902C7A086C
:100922000A128A118E250A128A11972C0800F900E0
:100932000A128A1146240A128A11D0300A128A1126
:100942008C230A128A1100300A128A118C230A128D
:100952008A1178080A128A118C230A128A117708DE
:100962000A128A118C230A128A1179080A128A1130
:100972008C230A128A110A128A111E240A128A115F
:100982000800F9000A128A1146240A128A11D0308C
:100992000A128A118C230A128A1104300A128A114D
:1009A2008C230A128A1179080A128A118C230A12DC
:1009B2008A1177080A128A118C230A128A1178087E
:1009C2000A128A118C230A128A110A128A111E240F
:1009D2000A128A1108008830F0001330F1000A125E
:1009E2008A1199230A128A1183160313860102308F
:1009F2000A128A118E250A128A1128300A128A11C5
:100A02008E250A128A110E300A128A118E250A12B6
:100A12008A1101300A128A118E250A128A11803037
:100A22000A128A118E250A128A110800F400F501B1
:100A320008307502031C1E2D1F2D212D482D482D17
:100A42007408F20007300310F20CFF3E031D242D40
:100A520072182C2D302D831203130716332D831297
:100A6200031307120A128A11C2230A128A11740886
:100A7200F2007207F3007308F4000130F20072080A
:100A8200F50708307502031C472D482D212D8312CE
:100A9200031307160800F501831603130716F40162
:100AA20008307402031C562D572D592D882D882D80
:100AB2000130F0000030F1000A128A1199230A1263
:100AC2008A118312031387150130F0000030F10000
:100AD2000A128A1199230A128A117508F200720702
:100AE200F3007308F500003083120313071A013074
:100AF2007504F2007208F50087110130F2007208E5
:100B0200F40708307402031C872D882D592D831693
:100B12000313071275088D2D0800F5007508F039CA
:100B22008312031386000610861006150A30F000A1
:100B32000030F1000A128A1199230A128A118312D3
:100B4200031306110A30F0000030F1000A128A1174
:100B520099230A128A117508F40003300310F40D68
:100B6200FF3E031DAF2D0310740DF03983120313E2
:100B720086000610861006150A30F0000030F100DB
:100B82000A128A1199230A128A1183120313061177
:100B92000130F2000030F3000A128A11A9230A126E
:100BA2008A110800F5007508F039831203138600D4
:100BB2000614861006150A30F0000030F1000A1201
:100BC2008A1199230A128A118312031306110A3019
:100BD200F0000030F1000A128A1199230A128A11D8
:100BE2007508F40003300310F40DFF3E031DF42DCD
:100BF2000310740DF0398312031386000614861055
:100C020006150A30F0000030F1000A128A11992309
:100C12000A128A118312031306110130F200003006
:100C2200F3000A128A11A9230A128A110800F90094
:100C32007908F80004300310F80CFF3E031D1C2E47
:100C420078080F39303E0A128A11D3250A128A1106
:100C520079080F39303E0A128A11D3250A128A11F5
:100C62003A300A128A11D3250A128A117608F8003C
:100C720004300310F80CFF3E031D3A2E78080F399A
:100C8200303E0A128A11D3250A128A1176080F39C8
:100C9200303E0A128A11D3250A128A113A300A12F8
:100CA2008A11D3250A128A117708F800043003103A
:100CB200F80CFF3E031D582E78080F39303E0A12F9
:100CC2008A11D3250A128A1177080F39303E0A1287
:100CD2008A11D3250A128A110800F9007908F8004E
:100CE20004300310F80CFF3E031D722E78080F39F2
:100CF200303E0A128A11D3250A128A1179080F3955
:100D0200303E0A128A11D3250A128A112F300A1292
:100D12008A11D3250A128A117608F80004300310CA
:100D2200F80CFF3E031D902E78080F39303E0A1250
:100D32008A11D3250A128A1176080F39303E0A1217
:100D42008A11D3250A128A112F300A128A11D32549
:100D52000A128A117708F80004300310F80CFF3EDB
:100D6200031DAE2E78080F39303E0A128A11D325A0
:100D72000A128A1177080F39303E0A128A11D325D6
:100D82000A128A110800FB000A128A1146240A126A
:100D92008A11D0300A128A118C230A128A11003069
:100DA2000A128A118C230A128A110A128A111E242B
:100DB2000A128A110A128A1146240A128A11D130A1
:100DC2000A128A118C230A128A110A128A116923C1
:100DD2000A128A11FA00790884007A0883138000C3
:100DE2000A128A1174230A128A110A128A116923B9
:100DF2000A128A11FA00780884007A0883138000A4
:100E02000A128A1174230A128A110A128A11692398
:100E12000A128A11FA007B0884007A088313800080
:100E22000A128A1180230A128A110A128A111E24B6
:100E32000A128A110800FB000A128A1146240A12B9
:100E42008A11D0300A128A118C230A128A110430B4
:100E52000A128A118C230A128A110A128A111E247A
:100E62000A128A110A128A1146240A128A11D130F0
:100E72000A128A118C230A128A110A128A11692310
:100E82000A128A11FA007B0884007A088313800010
:100E92000A128A1174230A128A110A128A11692308
:100EA2000A128A11FA00780884007A0883138000F3
:100EB2000A128A1174230A128A110A128A116923E8
:100EC2000A128A11FA00790884007A0883138000D2
:100ED2000A128A1180230A128A110A128A111E2406
:100EE2000A128A1108000A128A11EC240A128A11C3
:100EF2000A128A11FC230A128A114030FC007C0873
:100F0200F7002030FD007D08F80010300A128A1127
:100F120098240A128A111230FC007C08F700123061
:100F2200FD007D08F80001300A128A11C2240A125B
:100F32008A1101300A128A11DB230A128A110A125B
:100F42008A1162230A128A1108300A128A11DB23DB
:100F52000A128A112130FC007C08F8002030FD00C2
:100F62007D08F90022300A128A11C4260A128A1157
:100F72000630FC007C08F60000300A128A116F2449
:100F82000A128A11831203132108FC007C08F6005E
:100F92002008FD007D08F70022080A128A1118268F
:100FA2000A128A112430FC007C08F8002530FD006A
:100FB2007D08F90023300A128A111C270A128A11AD
:100FC2000630FC007C08F60001300A128A116F24F8
:100FD2000A128A11831203132408FC007C08F6000B
:100FE2002508FD007D08F70023080A128A116E26E3
:0E0FF2000A128A11AB2FAB2F0A128A110028A7
:00000001FF
