:060000000A128A11D42E41
:100DA80083010A128A11272FD92E831203138C1E4E
:100DB800DE2EDF2ED92E8C121A08E22E0800F00043
:100DC800E52E831203130C1EEA2EEB2EE52E0C12D1
:100DD80070089900080080308316031387002030BC
:100DE800980090308312031398001F308316031362
:100DF80099000800062F0130F0020030031CF103AF
:100E0800F102062F71087004031D0B2F0C2FFF2E03
:100E18000D2F08001F2F2C30F0000130F1000A12AE
:100E28008A11FE260A128A110130F2020030031CD0
:100E3800F303F3021F2F73087204031D242F252FB9
:100E48000F2F262F08000A128A11EF260A128A117C
:100E58000A128A114B270A128A11322F0A128A1192
:100E6800D8260A128A11F6007608F70077080A12BF
:100E78008A11E3260A128A1177080A128A1176273C
:100E88000A128A11322F322F0A128A11002888304A
:100E9800F0001330F1000A128A11FE260A128A1194
:100EA80083160313860102300A128A11BB270A121D
:100EB8008A1128300A128A11BB270A128A110E30A9
:100EC8000A128A11BB270A128A1101300A128A11E2
:100ED800BB270A128A1180300A128A11BB270A120C
:100EE8008A110800F5007508F0398312031386008B
:100EF8000614861006150A30F0000030F1000A12B8
:100F08008A11FE260A128A118312031306110A3067
:100F1800F0000030F1000A128A11FE260A128A1126
:100F28007508F40003300310F40DFF3E031D972FDE
:100F38000310740DF039831203138600061486100B
:100F480006150A30F0000030F1000A128A11FE2658
:100F58000A128A118312031306110130F2000030BD
:100F6800F3000A128A110E270A128A110800F500E6
:100F78007508F039831203138600061086100615CB
:100F88000A30F0000030F1000A128A11FE260A1217
:100F98008A118312031306110A30F0000030F100A1
:100FA8000A128A11FE260A128A117508F400033003
:100FB8000310F40DFF3E031DDC2F0310740DF039F0
:100FC8008312031386000610861006150A30F000F7
:100FD8000030F1000A128A11FE260A128A118312C1
:100FE800031306110130F2000030F3000A128A11CF
:080FF8000E270A128A110800FD
:00000001FF
